{
  "_format": "hh-sol-artifact-1",
  "contractName": "AgriculturalInsurance",
  "sourceName": "contracts/5_Insurance.sol",
  "abi": [
    {
      "inputs": [],
      "stateMutability": "nonpayable",
      "type": "constructor"
    },
    {
      "inputs": [],
      "name": "EnforcedPause",
      "type": "error"
    },
    {
      "inputs": [],
      "name": "ExpectedPause",
      "type": "error"
    },
    {
      "inputs": [
        {
          "internalType": "address",
          "name": "owner",
          "type": "address"
        }
      ],
      "name": "OwnableInvalidOwner",
      "type": "error"
    },
    {
      "inputs": [
        {
          "internalType": "address",
          "name": "account",
          "type": "address"
        }
      ],
      "name": "OwnableUnauthorizedAccount",
      "type": "error"
    },
    {
      "inputs": [],
      "name": "ReentrancyGuardReentrantCall",
      "type": "error"
    },
    {
      "anonymous": false,
      "inputs": [
        {
          "indexed": true,
          "internalType": "uint256",
          "name": "policyId",
          "type": "uint256"
        },
        {
          "indexed": true,
          "internalType": "address",
          "name": "policyholder",
          "type": "address"
        },
        {
          "indexed": false,
          "internalType": "uint256",
          "name": "claimAmount",
          "type": "uint256"
        },
        {
          "indexed": false,
          "internalType": "string",
          "name": "reason",
          "type": "string"
        },
        {
          "indexed": false,
          "internalType": "uint256",
          "name": "timestamp",
          "type": "uint256"
        }
      ],
      "name": "ClaimSubmitted",
      "type": "event"
    },
    {
      "anonymous": false,
      "inputs": [
        {
          "indexed": true,
          "internalType": "uint256",
          "name": "packageId",
          "type": "uint256"
        },
        {
          "indexed": false,
          "internalType": "string",
          "name": "name",
          "type": "string"
        },
        {
          "indexed": false,
          "internalType": "uint256",
          "name": "priceAVAX",
          "type": "uint256"
        },
        {
          "indexed": false,
          "internalType": "uint256",
          "name": "priceUSDC",
          "type": "uint256"
        },
        {
          "indexed": false,
          "internalType": "bool",
          "name": "isActive",
          "type": "bool"
        }
      ],
      "name": "InsurancePackageCreated",
      "type": "event"
    },
    {
      "anonymous": false,
      "inputs": [
        {
          "indexed": true,
          "internalType": "uint256",
          "name": "packageId",
          "type": "uint256"
        },
        {
          "indexed": false,
          "internalType": "string",
          "name": "name",
          "type": "string"
        },
        {
          "indexed": false,
          "internalType": "uint256",
          "name": "priceAVAX",
          "type": "uint256"
        },
        {
          "indexed": false,
          "internalType": "uint256",
          "name": "priceUSDC",
          "type": "uint256"
        },
        {
          "indexed": false,
          "internalType": "bool",
          "name": "isActive",
          "type": "bool"
        }
      ],
      "name": "InsurancePackageUpdated",
      "type": "event"
    },
    {
      "anonymous": false,
      "inputs": [
        {
          "indexed": true,
          "internalType": "uint256",
          "name": "policyId",
          "type": "uint256"
        },
        {
          "indexed": true,
          "internalType": "address",
          "name": "policyholder",
          "type": "address"
        },
        {
          "indexed": true,
          "internalType": "uint256",
          "name": "packageId",
          "type": "uint256"
        },
        {
          "indexed": false,
          "internalType": "uint256",
          "name": "latitude",
          "type": "uint256"
        },
        {
          "indexed": false,
          "internalType": "uint256",
          "name": "longitude",
          "type": "uint256"
        },
        {
          "indexed": false,
          "internalType": "uint256",
          "name": "startDate",
          "type": "uint256"
        },
        {
          "indexed": false,
          "internalType": "uint256",
          "name": "endDate",
          "type": "uint256"
        },
        {
          "indexed": false,
          "internalType": "uint256",
          "name": "premiumAmount",
          "type": "uint256"
        },
        {
          "indexed": false,
          "internalType": "string",
          "name": "paymentToken",
          "type": "string"
        },
        {
          "indexed": false,
          "internalType": "uint256",
          "name": "timestamp",
          "type": "uint256"
        }
      ],
      "name": "InsurancePurchased",
      "type": "event"
    },
    {
      "anonymous": false,
      "inputs": [
        {
          "indexed": true,
          "internalType": "address",
          "name": "oldWallet",
          "type": "address"
        },
        {
          "indexed": true,
          "internalType": "address",
          "name": "newWallet",
          "type": "address"
        }
      ],
      "name": "MasterWalletChanged",
      "type": "event"
    },
    {
      "anonymous": false,
      "inputs": [
        {
          "indexed": true,
          "internalType": "address",
          "name": "previousOwner",
          "type": "address"
        },
        {
          "indexed": true,
          "internalType": "address",
          "name": "newOwner",
          "type": "address"
        }
      ],
      "name": "OwnershipTransferred",
      "type": "event"
    },
    {
      "anonymous": false,
      "inputs": [
        {
          "indexed": false,
          "internalType": "address",
          "name": "account",
          "type": "address"
        }
      ],
      "name": "Paused",
      "type": "event"
    },
    {
      "anonymous": false,
      "inputs": [
        {
          "indexed": false,
          "internalType": "address",
          "name": "account",
          "type": "address"
        }
      ],
      "name": "Unpaused",
      "type": "event"
    },
    {
      "inputs": [],
      "name": "USDC_ADDRESS",
      "outputs": [
        {
          "internalType": "address",
          "name": "",
          "type": "address"
        }
      ],
      "stateMutability": "view",
      "type": "function"
    },
    {
      "inputs": [
        {
          "internalType": "address",
          "name": "newMasterWallet",
          "type": "address"
        }
      ],
      "name": "changeMasterWallet",
      "outputs": [],
      "stateMutability": "nonpayable",
      "type": "function"
    },
    {
      "inputs": [
        {
          "internalType": "uint256",
          "name": "packageId",
          "type": "uint256"
        },
        {
          "internalType": "string",
          "name": "name",
          "type": "string"
        },
        {
          "internalType": "uint256",
          "name": "priceAVAX",
          "type": "uint256"
        },
        {
          "internalType": "uint256",
          "name": "priceUSDC",
          "type": "uint256"
        },
        {
          "internalType": "bool",
          "name": "isActive",
          "type": "bool"
        }
      ],
      "name": "createOrUpdatePackage",
      "outputs": [],
      "stateMutability": "nonpayable",
      "type": "function"
    },
    {
      "inputs": [],
      "name": "emergencyWithdraw",
      "outputs": [],
      "stateMutability": "nonpayable",
      "type": "function"
    },
    {
      "inputs": [],
      "name": "emergencyWithdrawUSDC",
      "outputs": [],
      "stateMutability": "nonpayable",
      "type": "function"
    },
    {
      "inputs": [
        {
          "internalType": "uint256",
          "name": "packageId",
          "type": "uint256"
        }
      ],
      "name": "getPackage",
      "outputs": [
        {
          "components": [
            {
              "internalType": "uint256",
              "name": "packageId",
              "type": "uint256"
            },
            {
              "internalType": "string",
              "name": "name",
              "type": "string"
            },
            {
              "internalType": "uint256",
              "name": "priceAVAX",
              "type": "uint256"
            },
            {
              "internalType": "uint256",
              "name": "priceUSDC",
              "type": "uint256"
            },
            {
              "internalType": "bool",
              "name": "isActive",
              "type": "bool"
            }
          ],
          "internalType": "struct AgriculturalInsurance.InsurancePackage",
          "name": "",
          "type": "tuple"
        }
      ],
      "stateMutability": "view",
      "type": "function"
    },
    {
      "inputs": [
        {
          "internalType": "uint256",
          "name": "policyId",
          "type": "uint256"
        }
      ],
      "name": "getPolicy",
      "outputs": [
        {
          "components": [
            {
              "internalType": "uint256",
              "name": "policyId",
              "type": "uint256"
            },
            {
              "internalType": "address",
              "name": "policyholder",
              "type": "address"
            },
            {
              "internalType": "uint256",
              "name": "packageId",
              "type": "uint256"
            },
            {
              "internalType": "uint256",
              "name": "latitude",
              "type": "uint256"
            },
            {
              "internalType": "uint256",
              "name": "longitude",
              "type": "uint256"
            },
            {
              "internalType": "uint256",
              "name": "startDate",
              "type": "uint256"
            },
            {
              "internalType": "uint256",
              "name": "endDate",
              "type": "uint256"
            },
            {
              "internalType": "uint256",
              "name": "premiumAmount",
              "type": "uint256"
            },
            {
              "internalType": "bool",
              "name": "isActive",
              "type": "bool"
            },
            {
              "internalType": "bool",
              "name": "isClaimed",
              "type": "bool"
            },
            {
              "internalType": "uint256",
              "name": "createdAt",
              "type": "uint256"
            }
          ],
          "internalType": "struct AgriculturalInsurance.InsurancePolicy",
          "name": "",
          "type": "tuple"
        }
      ],
      "stateMutability": "view",
      "type": "function"
    },
    {
      "inputs": [],
      "name": "getTotalPolicies",
      "outputs": [
        {
          "internalType": "uint256",
          "name": "",
          "type": "uint256"
        }
      ],
      "stateMutability": "view",
      "type": "function"
    },
    {
      "inputs": [
        {
          "internalType": "address",
          "name": "user",
          "type": "address"
        }
      ],
      "name": "getUserPolicies",
      "outputs": [
        {
          "components": [
            {
              "internalType": "uint256",
              "name": "policyId",
              "type": "uint256"
            },
            {
              "internalType": "address",
              "name": "policyholder",
              "type": "address"
            },
            {
              "internalType": "uint256",
              "name": "packageId",
              "type": "uint256"
            },
            {
              "internalType": "uint256",
              "name": "latitude",
              "type": "uint256"
            },
            {
              "internalType": "uint256",
              "name": "longitude",
              "type": "uint256"
            },
            {
              "internalType": "uint256",
              "name": "startDate",
              "type": "uint256"
            },
            {
              "internalType": "uint256",
              "name": "endDate",
              "type": "uint256"
            },
            {
              "internalType": "uint256",
              "name": "premiumAmount",
              "type": "uint256"
            },
            {
              "internalType": "bool",
              "name": "isActive",
              "type": "bool"
            },
            {
              "internalType": "bool",
              "name": "isClaimed",
              "type": "bool"
            },
            {
              "internalType": "uint256",
              "name": "createdAt",
              "type": "uint256"
            }
          ],
          "internalType": "struct AgriculturalInsurance.InsurancePolicy[]",
          "name": "",
          "type": "tuple[]"
        }
      ],
      "stateMutability": "view",
      "type": "function"
    },
    {
      "inputs": [
        {
          "internalType": "uint256",
          "name": "",
          "type": "uint256"
        }
      ],
      "name": "insurancePackages",
      "outputs": [
        {
          "internalType": "uint256",
          "name": "packageId",
          "type": "uint256"
        },
        {
          "internalType": "string",
          "name": "name",
          "type": "string"
        },
        {
          "internalType": "uint256",
          "name": "priceAVAX",
          "type": "uint256"
        },
        {
          "internalType": "uint256",
          "name": "priceUSDC",
          "type": "uint256"
        },
        {
          "internalType": "bool",
          "name": "isActive",
          "type": "bool"
        }
      ],
      "stateMutability": "view",
      "type": "function"
    },
    {
      "inputs": [],
      "name": "masterWallet",
      "outputs": [
        {
          "internalType": "address",
          "name": "",
          "type": "address"
        }
      ],
      "stateMutability": "view",
      "type": "function"
    },
    {
      "inputs": [],
      "name": "owner",
      "outputs": [
        {
          "internalType": "address",
          "name": "",
          "type": "address"
        }
      ],
      "stateMutability": "view",
      "type": "function"
    },
    {
      "inputs": [],
      "name": "pause",
      "outputs": [],
      "stateMutability": "nonpayable",
      "type": "function"
    },
    {
      "inputs": [],
      "name": "paused",
      "outputs": [
        {
          "internalType": "bool",
          "name": "",
          "type": "bool"
        }
      ],
      "stateMutability": "view",
      "type": "function"
    },
    {
      "inputs": [
        {
          "internalType": "uint256",
          "name": "",
          "type": "uint256"
        }
      ],
      "name": "policies",
      "outputs": [
        {
          "internalType": "uint256",
          "name": "policyId",
          "type": "uint256"
        },
        {
          "internalType": "address",
          "name": "policyholder",
          "type": "address"
        },
        {
          "internalType": "uint256",
          "name": "packageId",
          "type": "uint256"
        },
        {
          "internalType": "uint256",
          "name": "latitude",
          "type": "uint256"
        },
        {
          "internalType": "uint256",
          "name": "longitude",
          "type": "uint256"
        },
        {
          "internalType": "uint256",
          "name": "startDate",
          "type": "uint256"
        },
        {
          "internalType": "uint256",
          "name": "endDate",
          "type": "uint256"
        },
        {
          "internalType": "uint256",
          "name": "premiumAmount",
          "type": "uint256"
        },
        {
          "internalType": "bool",
          "name": "isActive",
          "type": "bool"
        },
        {
          "internalType": "bool",
          "name": "isClaimed",
          "type": "bool"
        },
        {
          "internalType": "uint256",
          "name": "createdAt",
          "type": "uint256"
        }
      ],
      "stateMutability": "view",
      "type": "function"
    },
    {
      "inputs": [
        {
          "internalType": "uint256",
          "name": "packageId",
          "type": "uint256"
        },
        {
          "internalType": "uint256",
          "name": "latitude",
          "type": "uint256"
        },
        {
          "internalType": "uint256",
          "name": "longitude",
          "type": "uint256"
        },
        {
          "internalType": "uint256",
          "name": "startDate",
          "type": "uint256"
        }
      ],
      "name": "purchaseInsuranceWithAVAX",
      "outputs": [],
      "stateMutability": "payable",
      "type": "function"
    },
    {
      "inputs": [
        {
          "internalType": "uint256",
          "name": "packageId",
          "type": "uint256"
        },
        {
          "internalType": "uint256",
          "name": "latitude",
          "type": "uint256"
        },
        {
          "internalType": "uint256",
          "name": "longitude",
          "type": "uint256"
        },
        {
          "internalType": "uint256",
          "name": "startDate",
          "type": "uint256"
        }
      ],
      "name": "purchaseInsuranceWithUSDC",
      "outputs": [],
      "stateMutability": "nonpayable",
      "type": "function"
    },
    {
      "inputs": [],
      "name": "renounceOwnership",
      "outputs": [],
      "stateMutability": "nonpayable",
      "type": "function"
    },
    {
      "inputs": [
        {
          "internalType": "uint256",
          "name": "policyId",
          "type": "uint256"
        },
        {
          "internalType": "string",
          "name": "reason",
          "type": "string"
        }
      ],
      "name": "submitClaim",
      "outputs": [],
      "stateMutability": "nonpayable",
      "type": "function"
    },
    {
      "inputs": [
        {
          "internalType": "address",
          "name": "newOwner",
          "type": "address"
        }
      ],
      "name": "transferOwnership",
      "outputs": [],
      "stateMutability": "nonpayable",
      "type": "function"
    },
    {
      "inputs": [],
      "name": "unpause",
      "outputs": [],
      "stateMutability": "nonpayable",
      "type": "function"
    },
    {
      "inputs": [
        {
          "internalType": "address",
          "name": "",
          "type": "address"
        },
        {
          "internalType": "uint256",
          "name": "",
          "type": "uint256"
        }
      ],
      "name": "userPolicies",
      "outputs": [
        {
          "internalType": "uint256",
          "name": "policyId",
          "type": "uint256"
        },
        {
          "internalType": "address",
          "name": "policyholder",
          "type": "address"
        },
        {
          "internalType": "uint256",
          "name": "packageId",
          "type": "uint256"
        },
        {
          "internalType": "uint256",
          "name": "latitude",
          "type": "uint256"
        },
        {
          "internalType": "uint256",
          "name": "longitude",
          "type": "uint256"
        },
        {
          "internalType": "uint256",
          "name": "startDate",
          "type": "uint256"
        },
        {
          "internalType": "uint256",
          "name": "endDate",
          "type": "uint256"
        },
        {
          "internalType": "uint256",
          "name": "premiumAmount",
          "type": "uint256"
        },
        {
          "internalType": "bool",
          "name": "isActive",
          "type": "bool"
        },
        {
          "internalType": "bool",
          "name": "isClaimed",
          "type": "bool"
        },
        {
          "internalType": "uint256",
          "name": "createdAt",
          "type": "uint256"
        }
      ],
      "stateMutability": "view",
      "type": "function"
    },
    {
      "stateMutability": "payable",
      "type": "receive"
    }
  ],
  "bytecode": "0x608060405234801561001057600080fd5b5033600073ffffffffffffffffffffffffffffffffffffffff168173ffffffffffffffffffffffffffffffffffffffff16036100845760006040517f1e4fbdf700000000000000000000000000000000000000000000000000000000815260040161007b91906101ee565b60405180910390fd5b610093816100e960201b60201c565b506001808190555033600260016101000a81548173ffffffffffffffffffffffffffffffffffffffff021916908373ffffffffffffffffffffffffffffffffffffffff1602179055506001600681905550610209565b60008060009054906101000a900473ffffffffffffffffffffffffffffffffffffffff169050816000806101000a81548173ffffffffffffffffffffffffffffffffffffffff021916908373ffffffffffffffffffffffffffffffffffffffff1602179055508173ffffffffffffffffffffffffffffffffffffffff168173ffffffffffffffffffffffffffffffffffffffff167f8be0079c531659141344cd1fd0a4f28419497f9722a3daafe3b4186f6b6457e060405160405180910390a35050565b600073ffffffffffffffffffffffffffffffffffffffff82169050919050565b60006101d8826101ad565b9050919050565b6101e8816101cd565b82525050565b600060208201905061020360008301846101df565b92915050565b613a20806102186000396000f3fe6080604052600436106101395760003560e01c80638456cb59116100ab578063d246dd691161006f578063d246dd6914610431578063d3e894831461045c578063db2e21bc146104a3578063e2b81dd1146104ba578063f2fde38b146104e3578063fc0d01171461050c57610179565b80638456cb591461036b5780638da5cb5b14610382578063b99dfe18146103ad578063bb09d9b7146103ea578063bff3cc031461041557610179565b806345b46525116100fd57806345b465251461027f5780634fef1488146102a85780635c975abb146102bf578063715018a6146102ea5780637c7ad74d1461030157806381d5fb9c1461034257610179565b806319ac46141461017e5780632b07fce3146101bb5780633d36adc5146101f85780633f4ba83a1461023f578063414b9dca1461025657610179565b36610179576040517f08c379a000000000000000000000000000000000000000000000000000000000815260040161017090612229565b60405180910390fd5b600080fd5b34801561018a57600080fd5b506101a560048036038101906101a091906122bb565b610537565b6040516101b291906124bc565b60405180910390f35b3480156101c757600080fd5b506101e260048036038101906101dd919061250a565b6106b2565b6040516101ef9190612618565b60405180910390f35b34801561020457600080fd5b5061021f600480360381019061021a9190612634565b6107bc565b6040516102369b9a999897969594939291906126a1565b60405180910390f35b34801561024b57600080fd5b5061025461086d565b005b34801561026257600080fd5b5061027d600480360381019061027891906122bb565b61087f565b005b34801561028b57600080fd5b506102a660048036038101906102a19190612892565b6109bc565b005b3480156102b457600080fd5b506102bd610c6a565b005b3480156102cb57600080fd5b506102d4610e14565b6040516102e191906128ee565b60405180910390f35b3480156102f657600080fd5b506102ff610e2b565b005b34801561030d57600080fd5b506103286004803603810190610323919061250a565b610e3f565b604051610339959493929190612977565b60405180910390f35b34801561034e57600080fd5b50610369600480360381019061036491906129fd565b610f0a565b005b34801561037757600080fd5b5061038061104c565b005b34801561038e57600080fd5b5061039761105e565b6040516103a49190612a94565b60405180910390f35b3480156103b957600080fd5b506103d460048036038101906103cf919061250a565b611087565b6040516103e19190612b6f565b60405180910390f35b3480156103f657600080fd5b506103ff61117f565b60405161040c9190612a94565b60405180910390f35b61042f600480360381019061042a9190612b91565b611197565b005b34801561043d57600080fd5b506104466116b1565b6040516104539190612bf8565b60405180910390f35b34801561046857600080fd5b50610483600480360381019061047e919061250a565b6116c7565b60405161049a9b9a999897969594939291906126a1565b60405180910390f35b3480156104af57600080fd5b506104b861175b565b005b3480156104c657600080fd5b506104e160048036038101906104dc9190612b91565b611862565b005b3480156104ef57600080fd5b5061050a600480360381019061050591906122bb565b611d6c565b005b34801561051857600080fd5b50610521611df2565b60405161052e9190612a94565b60405180910390f35b6060600460008373ffffffffffffffffffffffffffffffffffffffff1673ffffffffffffffffffffffffffffffffffffffff168152602001908152602001600020805480602002602001604051908101604052809291908181526020016000905b828210156106a757838290600052602060002090600a020160405180610160016040529081600082015481526020016001820160009054906101000a900473ffffffffffffffffffffffffffffffffffffffff1673ffffffffffffffffffffffffffffffffffffffff1673ffffffffffffffffffffffffffffffffffffffff1681526020016002820154815260200160038201548152602001600482015481526020016005820154815260200160068201548152602001600782015481526020016008820160009054906101000a900460ff161515151581526020016008820160019054906101000a900460ff1615151515815260200160098201548152505081526020019060010190610598565b505050509050919050565b6106ba612101565b6005600083815260200190815260200160002060405180610160016040529081600082015481526020016001820160009054906101000a900473ffffffffffffffffffffffffffffffffffffffff1673ffffffffffffffffffffffffffffffffffffffff1673ffffffffffffffffffffffffffffffffffffffff1681526020016002820154815260200160038201548152602001600482015481526020016005820154815260200160068201548152602001600782015481526020016008820160009054906101000a900460ff161515151581526020016008820160019054906101000a900460ff161515151581526020016009820154815250509050919050565b600460205281600052604060002081815481106107d857600080fd5b90600052602060002090600a0201600091509150508060000154908060010160009054906101000a900473ffffffffffffffffffffffffffffffffffffffff16908060020154908060030154908060040154908060050154908060060154908060070154908060080160009054906101000a900460ff16908060080160019054906101000a900460ff1690806009015490508b565b610875611e18565b61087d611e9f565b565b610887611e18565b600073ffffffffffffffffffffffffffffffffffffffff168173ffffffffffffffffffffffffffffffffffffffff16036108f6576040517f08c379a00000000000000000000000000000000000000000000000000000000081526004016108ed90612c5f565b60405180910390fd5b6000600260019054906101000a900473ffffffffffffffffffffffffffffffffffffffff16905081600260016101000a81548173ffffffffffffffffffffffffffffffffffffffff021916908373ffffffffffffffffffffffffffffffffffffffff1602179055508173ffffffffffffffffffffffffffffffffffffffff168173ffffffffffffffffffffffffffffffffffffffff167f63724c8bd919b8a673beebdf4d8d5ea7004cff50a18c12beca6d5435a42a05b860405160405180910390a35050565b816000600560008381526020019081526020016000206000015403610a16576040517f08c379a0000000000000000000000000000000000000000000000000000000008152600401610a0d90612ccb565b60405180910390fd5b60006005600085815260200190815260200160002090503373ffffffffffffffffffffffffffffffffffffffff168160010160009054906101000a900473ffffffffffffffffffffffffffffffffffffffff1673ffffffffffffffffffffffffffffffffffffffff1614610abf576040517f08c379a0000000000000000000000000000000000000000000000000000000008152600401610ab690612d37565b60405180910390fd5b8060080160009054906101000a900460ff16610b10576040517f08c379a0000000000000000000000000000000000000000000000000000000008152600401610b0790612da3565b60405180910390fd5b8060080160019054906101000a900460ff1615610b62576040517f08c379a0000000000000000000000000000000000000000000000000000000008152600401610b5990612e0f565b60405180910390fd5b8060050154421015610ba9576040517f08c379a0000000000000000000000000000000000000000000000000000000008152600401610ba090612e7b565b60405180910390fd5b8060060154421115610bf0576040517f08c379a0000000000000000000000000000000000000000000000000000000008152600401610be790612ee7565b60405180910390fd5b60018160080160016101000a81548160ff0219169083151502179055503373ffffffffffffffffffffffffffffffffffffffff16847fe52dcc71ebf93a6d887768174d40e661a59ca9aac8a133328a0c729f16e5d7eb83600701548642604051610c5c93929190612f07565b60405180910390a350505050565b610c72611e18565b600073b97ef9ef8734c71904d8002f8b6bc66dd9c48a6e905060008173ffffffffffffffffffffffffffffffffffffffff166370a08231306040518263ffffffff1660e01b8152600401610cc69190612a94565b602060405180830381865afa158015610ce3573d6000803e3d6000fd5b505050506040513d601f19601f82011682018060405250810190610d079190612f5a565b905060008111610d4c576040517f08c379a0000000000000000000000000000000000000000000000000000000008152600401610d4390612fd3565b60405180910390fd5b8173ffffffffffffffffffffffffffffffffffffffff1663a9059cbb610d7061105e565b836040518363ffffffff1660e01b8152600401610d8e929190612ff3565b6020604051808303816000875af1158015610dad573d6000803e3d6000fd5b505050506040513d601f19601f82011682018060405250810190610dd19190613031565b610e10576040517f08c379a0000000000000000000000000000000000000000000000000000000008152600401610e07906130aa565b60405180910390fd5b5050565b6000600260009054906101000a900460ff16905090565b610e33611e18565b610e3d6000611f02565b565b6003602052806000526040600020600091509050806000015490806001018054610e68906130f9565b80601f0160208091040260200160405190810160405280929190818152602001828054610e94906130f9565b8015610ee15780601f10610eb657610100808354040283529160200191610ee1565b820191906000526020600020905b815481529060010190602001808311610ec457829003601f168201915b5050505050908060020154908060030154908060040160009054906101000a900460ff16905085565b610f12611e18565b6040518060a0016040528086815260200185815260200184815260200183815260200182151581525060036000878152602001908152602001600020600082015181600001556020820151816001019081610f6d91906132d6565b50604082015181600201556060820151816003015560808201518160040160006101000a81548160ff021916908315150217905550905050600060056000878152602001908152602001600020600001540361100657847f95fa02c0bf35ca2e027856d3a76f1ebfa6e5a4ac42cbf730718ad598afe2e56e85858585604051610ff994939291906133a8565b60405180910390a2611045565b847fc67656b178c488ee50ced025877974457c847e8ce51b32cecdcf7736b9296eb28585858560405161103c94939291906133a8565b60405180910390a25b5050505050565b611054611e18565b61105c611fc6565b565b60008060009054906101000a900473ffffffffffffffffffffffffffffffffffffffff16905090565b61108f612175565b600360008381526020019081526020016000206040518060a0016040529081600082015481526020016001820180546110c7906130f9565b80601f01602080910402602001604051908101604052809291908181526020018280546110f3906130f9565b80156111405780601f1061111557610100808354040283529160200191611140565b820191906000526020600020905b81548152906001019060200180831161112357829003601f168201915b5050505050815260200160028201548152602001600382015481526020016004820160009054906101000a900460ff1615151515815250509050919050565b73b97ef9ef8734c71904d8002f8b6bc66dd9c48a6e81565b61119f612029565b6111a761206f565b836003600082815260200190815260200160002060040160009054906101000a900460ff1661120b576040517f08c379a000000000000000000000000000000000000000000000000000000000815260040161120290613440565b60405180910390fd5b60036000868152602001908152602001600020600201543414611263576040517f08c379a000000000000000000000000000000000000000000000000000000000815260040161125a906134ac565b60405180910390fd5b4282116112a5576040517f08c379a000000000000000000000000000000000000000000000000000000000815260040161129c90613518565b60405180910390fd5b6000600260019054906101000a900473ffffffffffffffffffffffffffffffffffffffff1673ffffffffffffffffffffffffffffffffffffffff16346040516112ed90613569565b60006040518083038185875af1925050503d806000811461132a576040519150601f19603f3d011682016040523d82523d6000602084013e61132f565b606091505b5050905080611373576040517f08c379a000000000000000000000000000000000000000000000000000000000815260040161136a906135f0565b60405180910390fd5b6000600660008154809291906113889061363f565b91905055905060006301e13380856113a09190613687565b905060006040518061016001604052808481526020013373ffffffffffffffffffffffffffffffffffffffff1681526020018a815260200189815260200188815260200187815260200183815260200134815260200160011515815260200160001515815260200142815250905080600560008581526020019081526020016000206000820151816000015560208201518160010160006101000a81548173ffffffffffffffffffffffffffffffffffffffff021916908373ffffffffffffffffffffffffffffffffffffffff16021790555060408201518160020155606082015181600301556080820151816004015560a0820151816005015560c0820151816006015560e082015181600701556101008201518160080160006101000a81548160ff0219169083151502179055506101208201518160080160016101000a81548160ff0219169083151502179055506101408201518160090155905050600460003373ffffffffffffffffffffffffffffffffffffffff1673ffffffffffffffffffffffffffffffffffffffff1681526020019081526020016000208190806001815401808255809150506001900390600052602060002090600a02016000909190919091506000820151816000015560208201518160010160006101000a81548173ffffffffffffffffffffffffffffffffffffffff021916908373ffffffffffffffffffffffffffffffffffffffff16021790555060408201518160020155606082015181600301556080820151816004015560a0820151816005015560c0820151816006015560e082015181600701556101008201518160080160006101000a81548160ff0219169083151502179055506101208201518160080160016101000a81548160ff02191690831515021790555061014082015181600901555050883373ffffffffffffffffffffffffffffffffffffffff16847f1714b475421f6b96acb2c9f34f9f3e52da68a94c04a6a9b274f0539152e7509e8b8b8b88344260405161169696959493929190613707565b60405180910390a450505050506116ab6120b0565b50505050565b600060016006546116c2919061377b565b905090565b60056020528060005260406000206000915090508060000154908060010160009054906101000a900473ffffffffffffffffffffffffffffffffffffffff16908060020154908060030154908060040154908060050154908060060154908060070154908060080160009054906101000a900460ff16908060080160019054906101000a900460ff1690806009015490508b565b611763611e18565b6000479050600081116117ab576040517f08c379a00000000000000000000000000000000000000000000000000000000081526004016117a2906137fb565b60405180910390fd5b60006117b561105e565b73ffffffffffffffffffffffffffffffffffffffff16826040516117d890613569565b60006040518083038185875af1925050503d8060008114611815576040519150601f19603f3d011682016040523d82523d6000602084013e61181a565b606091505b505090508061185e576040517f08c379a000000000000000000000000000000000000000000000000000000000815260040161185590613867565b60405180910390fd5b5050565b61186a612029565b61187261206f565b836003600082815260200190815260200160002060040160009054906101000a900460ff166118d6576040517f08c379a00000000000000000000000000000000000000000000000000000000081526004016118cd90613440565b60405180910390fd5b428211611918576040517f08c379a000000000000000000000000000000000000000000000000000000000815260040161190f90613518565b60405180910390fd5b600060036000878152602001908152602001600020600301549050600073b97ef9ef8734c71904d8002f8b6bc66dd9c48a6e90508073ffffffffffffffffffffffffffffffffffffffff166323b872dd33600260019054906101000a900473ffffffffffffffffffffffffffffffffffffffff16856040518463ffffffff1660e01b81526004016119ab93929190613887565b6020604051808303816000875af11580156119ca573d6000803e3d6000fd5b505050506040513d601f19601f820116820180604052508101906119ee9190613031565b611a2d576040517f08c379a0000000000000000000000000000000000000000000000000000000008152600401611a249061390a565b60405180910390fd5b600060066000815480929190611a429061363f565b91905055905060006301e1338086611a5a9190613687565b905060006040518061016001604052808481526020013373ffffffffffffffffffffffffffffffffffffffff1681526020018b81526020018a815260200189815260200188815260200183815260200186815260200160011515815260200160001515815260200142815250905080600560008581526020019081526020016000206000820151816000015560208201518160010160006101000a81548173ffffffffffffffffffffffffffffffffffffffff021916908373ffffffffffffffffffffffffffffffffffffffff16021790555060408201518160020155606082015181600301556080820151816004015560a0820151816005015560c0820151816006015560e082015181600701556101008201518160080160006101000a81548160ff0219169083151502179055506101208201518160080160016101000a81548160ff0219169083151502179055506101408201518160090155905050600460003373ffffffffffffffffffffffffffffffffffffffff1673ffffffffffffffffffffffffffffffffffffffff1681526020019081526020016000208190806001815401808255809150506001900390600052602060002090600a02016000909190919091506000820151816000015560208201518160010160006101000a81548173ffffffffffffffffffffffffffffffffffffffff021916908373ffffffffffffffffffffffffffffffffffffffff16021790555060408201518160020155606082015181600301556080820151816004015560a0820151816005015560c0820151816006015560e082015181600701556101008201518160080160006101000a81548160ff0219169083151502179055506101208201518160080160016101000a81548160ff02191690831515021790555061014082015181600901555050893373ffffffffffffffffffffffffffffffffffffffff16847f1714b475421f6b96acb2c9f34f9f3e52da68a94c04a6a9b274f0539152e7509e8c8c8c888c42604051611d5096959493929190613976565b60405180910390a4505050505050611d666120b0565b50505050565b611d74611e18565b600073ffffffffffffffffffffffffffffffffffffffff168173ffffffffffffffffffffffffffffffffffffffff1603611de65760006040517f1e4fbdf7000000000000000000000000000000000000000000000000000000008152600401611ddd9190612a94565b60405180910390fd5b611def81611f02565b50565b600260019054906101000a900473ffffffffffffffffffffffffffffffffffffffff1681565b611e206120b9565b73ffffffffffffffffffffffffffffffffffffffff16611e3e61105e565b73ffffffffffffffffffffffffffffffffffffffff1614611e9d57611e616120b9565b6040517f118cdaa7000000000000000000000000000000000000000000000000000000008152600401611e949190612a94565b60405180910390fd5b565b611ea76120c1565b6000600260006101000a81548160ff0219169083151502179055507f5db9ee0a495bf2e6ff9c91a7834c1ba4fdd244a5e8aa4e537bd38aeae4b073aa611eeb6120b9565b604051611ef89190612a94565b60405180910390a1565b60008060009054906101000a900473ffffffffffffffffffffffffffffffffffffffff169050816000806101000a81548173ffffffffffffffffffffffffffffffffffffffff021916908373ffffffffffffffffffffffffffffffffffffffff1602179055508173ffffffffffffffffffffffffffffffffffffffff168173ffffffffffffffffffffffffffffffffffffffff167f8be0079c531659141344cd1fd0a4f28419497f9722a3daafe3b4186f6b6457e060405160405180910390a35050565b611fce61206f565b6001600260006101000a81548160ff0219169083151502179055507f62e78cea01bee320cd4e420270b5ea74000d11b0c9f74754ebdbfc544b05a2586120126120b9565b60405161201f9190612a94565b60405180910390a1565b600260015403612065576040517f3ee5aeb500000000000000000000000000000000000000000000000000000000815260040160405180910390fd5b6002600181905550565b612077610e14565b156120ae576040517fd93c066500000000000000000000000000000000000000000000000000000000815260040160405180910390fd5b565b60018081905550565b600033905090565b6120c9610e14565b6120ff576040517f8dfc202b00000000000000000000000000000000000000000000000000000000815260040160405180910390fd5b565b60405180610160016040528060008152602001600073ffffffffffffffffffffffffffffffffffffffff168152602001600081526020016000815260200160008152602001600081526020016000815260200160008152602001600015158152602001600015158152602001600081525090565b6040518060a00160405280600081526020016060815260200160008152602001600081526020016000151581525090565b600082825260208201905092915050565b7f557365207075726368617365496e737572616e6365576974684156415820667560008201527f6e6374696f6e0000000000000000000000000000000000000000000000000000602082015250565b60006122136026836121a6565b915061221e826121b7565b604082019050919050565b6000602082019050818103600083015261224281612206565b9050919050565b6000604051905090565b600080fd5b600080fd5b600073ffffffffffffffffffffffffffffffffffffffff82169050919050565b60006122888261225d565b9050919050565b6122988161227d565b81146122a357600080fd5b50565b6000813590506122b58161228f565b92915050565b6000602082840312156122d1576122d0612253565b5b60006122df848285016122a6565b91505092915050565b600081519050919050565b600082825260208201905092915050565b6000819050602082019050919050565b6000819050919050565b61232781612314565b82525050565b6123368161227d565b82525050565b60008115159050919050565b6123518161233c565b82525050565b6101608201600082015161236e600085018261231e565b506020820151612381602085018261232d565b506040820151612394604085018261231e565b5060608201516123a7606085018261231e565b5060808201516123ba608085018261231e565b5060a08201516123cd60a085018261231e565b5060c08201516123e060c085018261231e565b5060e08201516123f360e085018261231e565b50610100820151612408610100850182612348565b5061012082015161241d610120850182612348565b5061014082015161243261014085018261231e565b50505050565b60006124448383612357565b6101608301905092915050565b6000602082019050919050565b6000612469826122e8565b61247381856122f3565b935061247e83612304565b8060005b838110156124af5781516124968882612438565b97506124a183612451565b925050600181019050612482565b5085935050505092915050565b600060208201905081810360008301526124d6818461245e565b905092915050565b6124e781612314565b81146124f257600080fd5b50565b600081359050612504816124de565b92915050565b6000602082840312156125205761251f612253565b5b600061252e848285016124f5565b91505092915050565b6101608201600082015161254e600085018261231e565b506020820151612561602085018261232d565b506040820151612574604085018261231e565b506060820151612587606085018261231e565b50608082015161259a608085018261231e565b5060a08201516125ad60a085018261231e565b5060c08201516125c060c085018261231e565b5060e08201516125d360e085018261231e565b506101008201516125e8610100850182612348565b506101208201516125fd610120850182612348565b5061014082015161261261014085018261231e565b50505050565b60006101608201905061262e6000830184612537565b92915050565b6000806040838503121561264b5761264a612253565b5b6000612659858286016122a6565b925050602061266a858286016124f5565b9150509250929050565b61267d81612314565b82525050565b61268c8161227d565b82525050565b61269b8161233c565b82525050565b6000610160820190506126b7600083018e612674565b6126c4602083018d612683565b6126d1604083018c612674565b6126de606083018b612674565b6126eb608083018a612674565b6126f860a0830189612674565b61270560c0830188612674565b61271260e0830187612674565b612720610100830186612692565b61272e610120830185612692565b61273c610140830184612674565b9c9b505050505050505050505050565b600080fd5b600080fd5b6000601f19601f8301169050919050565b7f4e487b7100000000000000000000000000000000000000000000000000000000600052604160045260246000fd5b61279f82612756565b810181811067ffffffffffffffff821117156127be576127bd612767565b5b80604052505050565b60006127d1612249565b90506127dd8282612796565b919050565b600067ffffffffffffffff8211156127fd576127fc612767565b5b61280682612756565b9050602081019050919050565b82818337600083830152505050565b6000612835612830846127e2565b6127c7565b90508281526020810184848401111561285157612850612751565b5b61285c848285612813565b509392505050565b600082601f8301126128795761287861274c565b5b8135612889848260208601612822565b91505092915050565b600080604083850312156128a9576128a8612253565b5b60006128b7858286016124f5565b925050602083013567ffffffffffffffff8111156128d8576128d7612258565b5b6128e485828601612864565b9150509250929050565b60006020820190506129036000830184612692565b92915050565b600081519050919050565b60005b83811015612932578082015181840152602081019050612917565b60008484015250505050565b600061294982612909565b61295381856121a6565b9350612963818560208601612914565b61296c81612756565b840191505092915050565b600060a08201905061298c6000830188612674565b818103602083015261299e818761293e565b90506129ad6040830186612674565b6129ba6060830185612674565b6129c76080830184612692565b9695505050505050565b6129da8161233c565b81146129e557600080fd5b50565b6000813590506129f7816129d1565b92915050565b600080600080600060a08688031215612a1957612a18612253565b5b6000612a27888289016124f5565b955050602086013567ffffffffffffffff811115612a4857612a47612258565b5b612a5488828901612864565b9450506040612a65888289016124f5565b9350506060612a76888289016124f5565b9250506080612a87888289016129e8565b9150509295509295909350565b6000602082019050612aa96000830184612683565b92915050565b600082825260208201905092915050565b6000612acb82612909565b612ad58185612aaf565b9350612ae5818560208601612914565b612aee81612756565b840191505092915050565b600060a083016000830151612b11600086018261231e565b5060208301518482036020860152612b298282612ac0565b9150506040830151612b3e604086018261231e565b506060830151612b51606086018261231e565b506080830151612b646080860182612348565b508091505092915050565b60006020820190508181036000830152612b898184612af9565b905092915050565b60008060008060808587031215612bab57612baa612253565b5b6000612bb9878288016124f5565b9450506020612bca878288016124f5565b9350506040612bdb878288016124f5565b9250506060612bec878288016124f5565b91505092959194509250565b6000602082019050612c0d6000830184612674565b92915050565b7f496e76616c6964206d61737465722077616c6c65742061646472657373000000600082015250565b6000612c49601d836121a6565b9150612c5482612c13565b602082019050919050565b60006020820190508181036000830152612c7881612c3c565b9050919050565b7f506f6c696379206e6f7420666f756e6400000000000000000000000000000000600082015250565b6000612cb56010836121a6565b9150612cc082612c7f565b602082019050919050565b60006020820190508181036000830152612ce481612ca8565b9050919050565b7f4e6f7420706f6c696379206f776e657200000000000000000000000000000000600082015250565b6000612d216010836121a6565b9150612d2c82612ceb565b602082019050919050565b60006020820190508181036000830152612d5081612d14565b9050919050565b7f506f6c696379206e6f7420616374697665000000000000000000000000000000600082015250565b6000612d8d6011836121a6565b9150612d9882612d57565b602082019050919050565b60006020820190508181036000830152612dbc81612d80565b9050919050565b7f436c61696d20616c7265616479207375626d6974746564000000000000000000600082015250565b6000612df96017836121a6565b9150612e0482612dc3565b602082019050919050565b60006020820190508181036000830152612e2881612dec565b9050919050565b7f496e737572616e6365206e6f7420737461727465642079657400000000000000600082015250565b6000612e656019836121a6565b9150612e7082612e2f565b602082019050919050565b60006020820190508181036000830152612e9481612e58565b9050919050565b7f496e737572616e63652065787069726564000000000000000000000000000000600082015250565b6000612ed16011836121a6565b9150612edc82612e9b565b602082019050919050565b60006020820190508181036000830152612f0081612ec4565b9050919050565b6000606082019050612f1c6000830186612674565b8181036020830152612f2e818561293e565b9050612f3d6040830184612674565b949350505050565b600081519050612f54816124de565b92915050565b600060208284031215612f7057612f6f612253565b5b6000612f7e84828501612f45565b91505092915050565b7f4e6f205553444320746f20776974686472617700000000000000000000000000600082015250565b6000612fbd6013836121a6565b9150612fc882612f87565b602082019050919050565b60006020820190508181036000830152612fec81612fb0565b9050919050565b60006040820190506130086000830185612683565b6130156020830184612674565b9392505050565b60008151905061302b816129d1565b92915050565b60006020828403121561304757613046612253565b5b60006130558482850161301c565b91505092915050565b7f4661696c656420746f2077697468647261772055534443000000000000000000600082015250565b60006130946017836121a6565b915061309f8261305e565b602082019050919050565b600060208201905081810360008301526130c381613087565b9050919050565b7f4e487b7100000000000000000000000000000000000000000000000000000000600052602260045260246000fd5b6000600282049050600182168061311157607f821691505b602082108103613124576131236130ca565b5b50919050565b60008190508160005260206000209050919050565b60006020601f8301049050919050565b600082821b905092915050565b60006008830261318c7fffffffffffffffffffffffffffffffffffffffffffffffffffffffffffffffff8261314f565b613196868361314f565b95508019841693508086168417925050509392505050565b6000819050919050565b60006131d36131ce6131c984612314565b6131ae565b612314565b9050919050565b6000819050919050565b6131ed836131b8565b6132016131f9826131da565b84845461315c565b825550505050565b600090565b613216613209565b6132218184846131e4565b505050565b5b818110156132455761323a60008261320e565b600181019050613227565b5050565b601f82111561328a5761325b8161312a565b6132648461313f565b81016020851015613273578190505b61328761327f8561313f565b830182613226565b50505b505050565b600082821c905092915050565b60006132ad6000198460080261328f565b1980831691505092915050565b60006132c6838361329c565b9150826002028217905092915050565b6132df82612909565b67ffffffffffffffff8111156132f8576132f7612767565b5b61330282546130f9565b61330d828285613249565b600060209050601f831160018114613340576000841561332e578287015190505b61333885826132ba565b8655506133a0565b601f19841661334e8661312a565b60005b8281101561337657848901518255600182019150602085019450602081019050613351565b86831015613393578489015161338f601f89168261329c565b8355505b6001600288020188555050505b505050505050565b600060808201905081810360008301526133c2818761293e565b90506133d16020830186612674565b6133de6040830185612674565b6133eb6060830184612692565b95945050505050565b7f5061636b616765206e6f7420666f756e64206f7220696e616374697665000000600082015250565b600061342a601d836121a6565b9150613435826133f4565b602082019050919050565b600060208201905081810360008301526134598161341d565b9050919050565b7f496e636f7272656374207072656d69756d20616d6f756e740000000000000000600082015250565b60006134966018836121a6565b91506134a182613460565b602082019050919050565b600060208201905081810360008301526134c581613489565b9050919050565b7f53746172742064617465206d75737420626520696e2074686520667574757265600082015250565b60006135026020836121a6565b915061350d826134cc565b602082019050919050565b60006020820190508181036000830152613531816134f5565b9050919050565b600081905092915050565b50565b6000613553600083613538565b915061355e82613543565b600082019050919050565b600061357482613546565b9150819050919050565b7f4661696c656420746f207472616e73666572204156415820746f206d6173746560008201527f722077616c6c6574000000000000000000000000000000000000000000000000602082015250565b60006135da6028836121a6565b91506135e58261357e565b604082019050919050565b60006020820190508181036000830152613609816135cd565b9050919050565b7f4e487b7100000000000000000000000000000000000000000000000000000000600052601160045260246000fd5b600061364a82612314565b91507fffffffffffffffffffffffffffffffffffffffffffffffffffffffffffffffff820361367c5761367b613610565b5b600182019050919050565b600061369282612314565b915061369d83612314565b92508282019050808211156136b5576136b4613610565b5b92915050565b7f4156415800000000000000000000000000000000000000000000000000000000600082015250565b60006136f16004836121a6565b91506136fc826136bb565b602082019050919050565b600060e08201905061371c6000830189612674565b6137296020830188612674565b6137366040830187612674565b6137436060830186612674565b6137506080830185612674565b81810360a0830152613761816136e4565b905061377060c0830184612674565b979650505050505050565b600061378682612314565b915061379183612314565b92508282039050818111156137a9576137a8613610565b5b92915050565b7f4e6f204156415820746f20776974686472617700000000000000000000000000600082015250565b60006137e56013836121a6565b91506137f0826137af565b602082019050919050565b60006020820190508181036000830152613814816137d8565b9050919050565b7f4661696c656420746f2077697468647261772041564158000000000000000000600082015250565b60006138516017836121a6565b915061385c8261381b565b602082019050919050565b6000602082019050818103600083015261388081613844565b9050919050565b600060608201905061389c6000830186612683565b6138a96020830185612683565b6138b66040830184612674565b949350505050565b7f55534443207472616e73666572206661696c6564000000000000000000000000600082015250565b60006138f46014836121a6565b91506138ff826138be565b602082019050919050565b60006020820190508181036000830152613923816138e7565b9050919050565b7f5553444300000000000000000000000000000000000000000000000000000000600082015250565b60006139606004836121a6565b915061396b8261392a565b602082019050919050565b600060e08201905061398b6000830189612674565b6139986020830188612674565b6139a56040830187612674565b6139b26060830186612674565b6139bf6080830185612674565b81810360a08301526139d081613953565b90506139df60c0830184612674565b97965050505050505056fea2646970667358221220faf20ad516ed4c4b35dff973f694b61c647474a5767efeec40666709b6a33fc164736f6c634300081c0033",
  "linkReferences": {},
  "deployedLinkReferences": {}
}