{
  "_format": "hh-sol-artifact-1",
  "contractName": "AgriculturalInsurance",
  "sourceName": "contracts/5_Insurance.sol",
  "abi": [
    {
      "inputs": [],
      "stateMutability": "nonpayable",
      "type": "constructor"
    },
    {
      "inputs": [],
      "name": "EmptyArgs",
      "type": "error"
    },
    {
      "inputs": [],
      "name": "EmptySource",
      "type": "error"
    },
    {
      "inputs": [],
      "name": "EnforcedPause",
      "type": "error"
    },
    {
      "inputs": [],
      "name": "ExpectedPause",
      "type": "error"
    },
    {
      "inputs": [],
      "name": "NoInlineSecrets",
      "type": "error"
    },
    {
      "inputs": [],
      "name": "OnlyRouterCanFulfill",
      "type": "error"
    },
    {
      "inputs": [
        {
          "internalType": "address",
          "name": "owner",
          "type": "address"
        }
      ],
      "name": "OwnableInvalidOwner",
      "type": "error"
    },
    {
      "inputs": [
        {
          "internalType": "address",
          "name": "account",
          "type": "address"
        }
      ],
      "name": "OwnableUnauthorizedAccount",
      "type": "error"
    },
    {
      "inputs": [],
      "name": "ReentrancyGuardReentrantCall",
      "type": "error"
    },
    {
      "inputs": [
        {
          "internalType": "bytes32",
          "name": "requestId",
          "type": "bytes32"
        }
      ],
      "name": "UnexpectedRequestID",
      "type": "error"
    },
    {
      "anonymous": false,
      "inputs": [
        {
          "indexed": true,
          "internalType": "address",
          "name": "owner",
          "type": "address"
        },
        {
          "indexed": false,
          "internalType": "uint256",
          "name": "amount",
          "type": "uint256"
        },
        {
          "indexed": false,
          "internalType": "string",
          "name": "tokenType",
          "type": "string"
        }
      ],
      "name": "EmergencyWithdraw",
      "type": "event"
    },
    {
      "anonymous": false,
      "inputs": [
        {
          "indexed": true,
          "internalType": "address",
          "name": "user",
          "type": "address"
        },
        {
          "indexed": false,
          "internalType": "string",
          "name": "packageId",
          "type": "string"
        },
        {
          "indexed": false,
          "internalType": "address",
          "name": "tokenAddress",
          "type": "address"
        },
        {
          "indexed": false,
          "internalType": "uint256",
          "name": "premiumAmount",
          "type": "uint256"
        },
        {
          "indexed": false,
          "internalType": "int32",
          "name": "lat",
          "type": "int32"
        },
        {
          "indexed": false,
          "internalType": "int32",
          "name": "lon",
          "type": "int32"
        },
        {
          "indexed": false,
          "internalType": "uint256",
          "name": "startDate",
          "type": "uint256"
        },
        {
          "indexed": false,
          "internalType": "string",
          "name": "tokenType",
          "type": "string"
        },
        {
          "indexed": false,
          "internalType": "uint256",
          "name": "timestamp",
          "type": "uint256"
        }
      ],
      "name": "InsurancePurchased",
      "type": "event"
    },
    {
      "anonymous": false,
      "inputs": [
        {
          "indexed": false,
          "internalType": "uint8",
          "name": "logType",
          "type": "uint8"
        },
        {
          "indexed": false,
          "internalType": "string",
          "name": "message",
          "type": "string"
        }
      ],
      "name": "Log",
      "type": "event"
    },
    {
      "anonymous": false,
      "inputs": [
        {
          "indexed": true,
          "internalType": "address",
          "name": "previousOwner",
          "type": "address"
        },
        {
          "indexed": true,
          "internalType": "address",
          "name": "newOwner",
          "type": "address"
        }
      ],
      "name": "OwnershipTransferred",
      "type": "event"
    },
    {
      "anonymous": false,
      "inputs": [
        {
          "indexed": false,
          "internalType": "address",
          "name": "account",
          "type": "address"
        }
      ],
      "name": "Paused",
      "type": "event"
    },
    {
      "anonymous": false,
      "inputs": [
        {
          "indexed": true,
          "internalType": "address",
          "name": "user",
          "type": "address"
        },
        {
          "indexed": false,
          "internalType": "string",
          "name": "claimId",
          "type": "string"
        },
        {
          "indexed": false,
          "internalType": "uint256",
          "name": "amount",
          "type": "uint256"
        },
        {
          "indexed": false,
          "internalType": "string",
          "name": "tokenType",
          "type": "string"
        }
      ],
      "name": "PayoutProcessed",
      "type": "event"
    },
    {
      "anonymous": false,
      "inputs": [
        {
          "indexed": true,
          "internalType": "bytes32",
          "name": "id",
          "type": "bytes32"
        }
      ],
      "name": "RequestFulfilled",
      "type": "event"
    },
    {
      "anonymous": false,
      "inputs": [
        {
          "indexed": true,
          "internalType": "bytes32",
          "name": "id",
          "type": "bytes32"
        }
      ],
      "name": "RequestSent",
      "type": "event"
    },
    {
      "anonymous": false,
      "inputs": [
        {
          "indexed": false,
          "internalType": "address",
          "name": "account",
          "type": "address"
        }
      ],
      "name": "Unpaused",
      "type": "event"
    },
    {
      "anonymous": false,
      "inputs": [
        {
          "indexed": true,
          "internalType": "bytes32",
          "name": "requestId",
          "type": "bytes32"
        },
        {
          "indexed": false,
          "internalType": "int32",
          "name": "lat",
          "type": "int32"
        },
        {
          "indexed": false,
          "internalType": "int32",
          "name": "lon",
          "type": "int32"
        }
      ],
      "name": "WeatherDataRequested",
      "type": "event"
    },
    {
      "anonymous": false,
      "inputs": [
        {
          "indexed": true,
          "internalType": "bytes32",
          "name": "requestId",
          "type": "bytes32"
        },
        {
          "indexed": false,
          "internalType": "string",
          "name": "character",
          "type": "string"
        },
        {
          "indexed": false,
          "internalType": "bytes",
          "name": "response",
          "type": "bytes"
        },
        {
          "indexed": false,
          "internalType": "bytes",
          "name": "err",
          "type": "bytes"
        }
      ],
      "name": "WeatherResponse",
      "type": "event"
    },
    {
      "inputs": [
        {
          "internalType": "address",
          "name": "",
          "type": "address"
        }
      ],
      "name": "allowedERC20Tokens",
      "outputs": [
        {
          "internalType": "bool",
          "name": "",
          "type": "bool"
        }
      ],
      "stateMutability": "view",
      "type": "function"
    },
    {
      "inputs": [
        {
          "internalType": "address",
          "name": "newMasterWallet",
          "type": "address"
        }
      ],
      "name": "changeMasterWallet",
      "outputs": [],
      "stateMutability": "nonpayable",
      "type": "function"
    },
    {
      "inputs": [],
      "name": "character",
      "outputs": [
        {
          "internalType": "string",
          "name": "",
          "type": "string"
        }
      ],
      "stateMutability": "view",
      "type": "function"
    },
    {
      "inputs": [
        {
          "internalType": "bytes",
          "name": "",
          "type": "bytes"
        }
      ],
      "name": "checkUpkeep",
      "outputs": [
        {
          "internalType": "bool",
          "name": "upkeepNeeded",
          "type": "bool"
        },
        {
          "internalType": "bytes",
          "name": "performData",
          "type": "bytes"
        }
      ],
      "stateMutability": "view",
      "type": "function"
    },
    {
      "inputs": [
        {
          "internalType": "int32",
          "name": "lat",
          "type": "int32"
        },
        {
          "internalType": "int32",
          "name": "lon",
          "type": "int32"
        }
      ],
      "name": "deactivateLocation",
      "outputs": [],
      "stateMutability": "nonpayable",
      "type": "function"
    },
    {
      "inputs": [
        {
          "internalType": "uint256",
          "name": "amount",
          "type": "uint256"
        }
      ],
      "name": "emergencyWithdrawAVAX",
      "outputs": [],
      "stateMutability": "nonpayable",
      "type": "function"
    },
    {
      "inputs": [
        {
          "internalType": "address",
          "name": "tokenAddress",
          "type": "address"
        },
        {
          "internalType": "uint256",
          "name": "amount",
          "type": "uint256"
        }
      ],
      "name": "emergencyWithdrawERC20",
      "outputs": [],
      "stateMutability": "nonpayable",
      "type": "function"
    },
    {
      "inputs": [],
      "name": "getAllActiveLocations",
      "outputs": [
        {
          "components": [
            {
              "internalType": "int32",
              "name": "lat",
              "type": "int32"
            },
            {
              "internalType": "int32",
              "name": "lon",
              "type": "int32"
            }
          ],
          "internalType": "struct AgriculturalInsurance.CompactLocation[]",
          "name": "",
          "type": "tuple[]"
        }
      ],
      "stateMutability": "view",
      "type": "function"
    },
    {
      "inputs": [
        {
          "internalType": "bytes32",
          "name": "requestId",
          "type": "bytes32"
        },
        {
          "internalType": "bytes",
          "name": "response",
          "type": "bytes"
        },
        {
          "internalType": "bytes",
          "name": "err",
          "type": "bytes"
        }
      ],
      "name": "handleOracleFulfillment",
      "outputs": [],
      "stateMutability": "nonpayable",
      "type": "function"
    },
    {
      "inputs": [
        {
          "internalType": "bytes32",
          "name": "",
          "type": "bytes32"
        }
      ],
      "name": "isActive",
      "outputs": [
        {
          "internalType": "bool",
          "name": "",
          "type": "bool"
        }
      ],
      "stateMutability": "view",
      "type": "function"
    },
    {
      "inputs": [
        {
          "internalType": "address",
          "name": "tokenAddress",
          "type": "address"
        }
      ],
      "name": "isTokenAllowed",
      "outputs": [
        {
          "internalType": "bool",
          "name": "",
          "type": "bool"
        }
      ],
      "stateMutability": "view",
      "type": "function"
    },
    {
      "inputs": [
        {
          "internalType": "uint256",
          "name": "",
          "type": "uint256"
        }
      ],
      "name": "locationKeys",
      "outputs": [
        {
          "internalType": "bytes32",
          "name": "",
          "type": "bytes32"
        }
      ],
      "stateMutability": "view",
      "type": "function"
    },
    {
      "inputs": [
        {
          "internalType": "bytes32",
          "name": "",
          "type": "bytes32"
        }
      ],
      "name": "locations",
      "outputs": [
        {
          "internalType": "int32",
          "name": "lat",
          "type": "int32"
        },
        {
          "internalType": "int32",
          "name": "lon",
          "type": "int32"
        }
      ],
      "stateMutability": "view",
      "type": "function"
    },
    {
      "inputs": [],
      "name": "masterWallet",
      "outputs": [
        {
          "internalType": "address",
          "name": "",
          "type": "address"
        }
      ],
      "stateMutability": "view",
      "type": "function"
    },
    {
      "inputs": [],
      "name": "owner",
      "outputs": [
        {
          "internalType": "address",
          "name": "",
          "type": "address"
        }
      ],
      "stateMutability": "view",
      "type": "function"
    },
    {
      "inputs": [],
      "name": "pause",
      "outputs": [],
      "stateMutability": "nonpayable",
      "type": "function"
    },
    {
      "inputs": [],
      "name": "paused",
      "outputs": [
        {
          "internalType": "bool",
          "name": "",
          "type": "bool"
        }
      ],
      "stateMutability": "view",
      "type": "function"
    },
    {
      "inputs": [
        {
          "internalType": "bytes",
          "name": "performData",
          "type": "bytes"
        }
      ],
      "name": "performUpkeep",
      "outputs": [],
      "stateMutability": "nonpayable",
      "type": "function"
    },
    {
      "inputs": [
        {
          "internalType": "address",
          "name": "user",
          "type": "address"
        },
        {
          "internalType": "string",
          "name": "claimId",
          "type": "string"
        },
        {
          "internalType": "uint256",
          "name": "amount",
          "type": "uint256"
        },
        {
          "internalType": "address",
          "name": "tokenAddress",
          "type": "address"
        }
      ],
      "name": "processPayout",
      "outputs": [],
      "stateMutability": "nonpayable",
      "type": "function"
    },
    {
      "inputs": [
        {
          "internalType": "string",
          "name": "packageId",
          "type": "string"
        },
        {
          "internalType": "int32",
          "name": "lat",
          "type": "int32"
        },
        {
          "internalType": "int32",
          "name": "lon",
          "type": "int32"
        },
        {
          "internalType": "uint256",
          "name": "startDate",
          "type": "uint256"
        },
        {
          "internalType": "uint256",
          "name": "premiumAmount",
          "type": "uint256"
        },
        {
          "internalType": "address",
          "name": "tokenAddress",
          "type": "address"
        }
      ],
      "name": "purchaseInsuranceWithERC20",
      "outputs": [],
      "stateMutability": "nonpayable",
      "type": "function"
    },
    {
      "inputs": [
        {
          "internalType": "string",
          "name": "packageId",
          "type": "string"
        },
        {
          "internalType": "int32",
          "name": "lat",
          "type": "int32"
        },
        {
          "internalType": "int32",
          "name": "lon",
          "type": "int32"
        },
        {
          "internalType": "uint256",
          "name": "startDate",
          "type": "uint256"
        },
        {
          "internalType": "uint256",
          "name": "premiumAmount",
          "type": "uint256"
        }
      ],
      "name": "purchaseInsuranceWithNative",
      "outputs": [],
      "stateMutability": "payable",
      "type": "function"
    },
    {
      "inputs": [],
      "name": "renounceOwnership",
      "outputs": [],
      "stateMutability": "nonpayable",
      "type": "function"
    },
    {
      "inputs": [],
      "name": "s_lastError",
      "outputs": [
        {
          "internalType": "bytes",
          "name": "",
          "type": "bytes"
        }
      ],
      "stateMutability": "view",
      "type": "function"
    },
    {
      "inputs": [],
      "name": "s_lastRequestId",
      "outputs": [
        {
          "internalType": "bytes32",
          "name": "",
          "type": "bytes32"
        }
      ],
      "stateMutability": "view",
      "type": "function"
    },
    {
      "inputs": [],
      "name": "s_lastResponse",
      "outputs": [
        {
          "internalType": "bytes",
          "name": "",
          "type": "bytes"
        }
      ],
      "stateMutability": "view",
      "type": "function"
    },
    {
      "inputs": [
        {
          "internalType": "uint64",
          "name": "_subscriptionId",
          "type": "uint64"
        }
      ],
      "name": "setSubscriptionId",
      "outputs": [],
      "stateMutability": "nonpayable",
      "type": "function"
    },
    {
      "inputs": [
        {
          "internalType": "address",
          "name": "tokenAddress",
          "type": "address"
        },
        {
          "internalType": "bool",
          "name": "allowed",
          "type": "bool"
        }
      ],
      "name": "setTokenAllowed",
      "outputs": [],
      "stateMutability": "nonpayable",
      "type": "function"
    },
    {
      "inputs": [],
      "name": "subscriptionId",
      "outputs": [
        {
          "internalType": "uint64",
          "name": "",
          "type": "uint64"
        }
      ],
      "stateMutability": "view",
      "type": "function"
    },
    {
      "inputs": [
        {
          "internalType": "address",
          "name": "newOwner",
          "type": "address"
        }
      ],
      "name": "transferOwnership",
      "outputs": [],
      "stateMutability": "nonpayable",
      "type": "function"
    },
    {
      "inputs": [],
      "name": "unpause",
      "outputs": [],
      "stateMutability": "nonpayable",
      "type": "function"
    },
    {
      "inputs": [
        {
          "internalType": "bytes32",
          "name": "",
          "type": "bytes32"
        },
        {
          "internalType": "bytes32",
          "name": "",
          "type": "bytes32"
        }
      ],
      "name": "weatherDataByLocation",
      "outputs": [
        {
          "internalType": "int256",
          "name": "",
          "type": "int256"
        }
      ],
      "stateMutability": "view",
      "type": "function"
    },
    {
      "stateMutability": "payable",
      "type": "receive"
    }
  ],
  "bytecode": "0x600680546001600160a01b03191673a9d587a00a31a52ed70d6026794a8fc5e2f5dcb017905561044060405261036760a081815290613dc660c0396007906100479082610241565b506008805463ffffffff1916620493e01790557f66756e2d6176616c616e6368652d66756a692d3100000000000000000000000060095534801561008a57600080fd5b506006546001600160a01b031633806100bd57604051631e4fbdf760e01b81526000600482015260240160405180910390fd5b6100c681610152565b5060018080556001600160a01b03909116608052600b80546001600160a01b0319163317905560028054623d2100610100600160481b0319909116179055735425890298aed601595a70ab815c96711a31bc65600052600f6020527f287726dcd046d0ad4f1de91142a4c220d7aab5db58723f469490f37481108a80805460ff191690911790556102ff565b600080546001600160a01b038381166001600160a01b0319831681178455604051919092169283917f8be0079c531659141344cd1fd0a4f28419497f9722a3daafe3b4186f6b6457e09190a35050565b634e487b7160e01b600052604160045260246000fd5b600181811c908216806101cc57607f821691505b6020821081036101ec57634e487b7160e01b600052602260045260246000fd5b50919050565b601f82111561023c57806000526020600020601f840160051c810160208510156102195750805b601f840160051c820191505b818110156102395760008155600101610225565b50505b505050565b81516001600160401b0381111561025a5761025a6101a2565b61026e8161026884546101b8565b846101f2565b6020601f8211600181146102a2576000831561028a5750848201515b600019600385901b1c1916600184901b178455610239565b600084815260208120601f198516915b828110156102d257878501518255602094850194600190920191016102b2565b50848210156102f05786840151600019600387901b60f8161c191681555b50505050600190811b01905550565b608051613aa5610321600039600081816106ae01526126730152613aa56000f3fe6080604052600436106101dc5760003560e01c80636b38957c11610102578063d23ed64e11610095578063f2fde38b11610064578063f2fde38b146105d3578063f9c7e549146105f3578063f9eaee0d1461064a578063fc0d01171461068357600080fd5b8063d23ed64e14610543578063d83408e214610563578063df29b98214610593578063ea7b4f77146105b357600080fd5b80638d56e28c116100d15780638d56e28c146104bb5780638da5cb5b146104db578063b1e217491461050d578063b1e7bde71461052357600080fd5b80636b38957c146104505780636e04ff0d14610463578063715018a6146104915780638456cb59146104a657600080fd5b8063414b9dca1161017a5780634bdafd05116101495780634bdafd05146103ab5780634d2e03a0146103e35780635c36901c146103f85780635c975abb1461043857600080fd5b8063414b9dca146103285780634205fb94146103485780634585e33b146103765780634b0795a81461039657600080fd5b80631fdd9d33116101b65780631fdd9d33146102af578063335d421b146102d15780633944ea3a146102f15780633f4ba83a1461031357600080fd5b806309c1ba2e1461022b5780630ca761751461026d57806315f690121461028f57600080fd5b366102265760405162461bcd60e51b81526020600482015260156024820152742ab9b290383ab931b430b9b290333ab731ba34b7b760591b60448201526064015b60405180910390fd5b600080fd5b34801561023757600080fd5b506002546102509061010090046001600160401b031681565b6040516001600160401b0390911681526020015b60405180910390f35b34801561027957600080fd5b5061028d610288366004612d19565b6106a3565b005b34801561029b57600080fd5b5061028d6102aa366004612db3565b610727565b3480156102bb57600080fd5b506102c461075a565b6040516102649190612dea565b3480156102dd57600080fd5b5061028d6102ec366004612e52565b6108fd565b3480156102fd57600080fd5b506103066109b0565b6040516102649190612ed5565b34801561031f57600080fd5b5061028d610a3e565b34801561033457600080fd5b5061028d610343366004612ee8565b610a50565b34801561035457600080fd5b50610368610363366004612f03565b610ac2565b604051908152602001610264565b34801561038257600080fd5b5061028d610391366004612f1c565b610ae3565b3480156103a257600080fd5b50610306610cbd565b3480156103b757600080fd5b506103686103c6366004612f8e565b601060209081526000928352604080842090915290825290205481565b3480156103ef57600080fd5b50610306610cca565b34801561040457600080fd5b50610428610413366004612f03565b600d6020526000908152604090205460ff1681565b6040519015158152602001610264565b34801561044457600080fd5b5060025460ff16610428565b61028d61045e366004612fb0565b610cd7565b34801561046f57600080fd5b5061048361047e366004612f1c565b610ecf565b60405161026492919061301f565b34801561049d57600080fd5b5061028d610f02565b3480156104b257600080fd5b5061028d610f14565b3480156104c757600080fd5b5061028d6104d6366004612f03565b610f24565b3480156104e757600080fd5b506000546001600160a01b03165b6040516001600160a01b039091168152602001610264565b34801561051957600080fd5b5061036860035481565b34801561052f57600080fd5b5061028d61053e36600461303a565b611077565b34801561054f57600080fd5b5061028d61055e3660046130a1565b611541565b34801561056f57600080fd5b5061042861057e366004612ee8565b600f6020526000908152604090205460ff1681565b34801561059f57600080fd5b5061028d6105ae366004613121565b61183e565b3480156105bf57600080fd5b5061028d6105ce36600461314b565b611a3b565b3480156105df57600080fd5b5061028d6105ee366004612ee8565b611b16565b3480156105ff57600080fd5b5061063061060e366004612f03565b600c60205260009081526040902054600381810b916401000000009004900b82565b60408051600393840b81529190920b602082015201610264565b34801561065657600080fd5b50610428610665366004612ee8565b6001600160a01b03166000908152600f602052604090205460ff1690565b34801561068f57600080fd5b50600b546104f5906001600160a01b031681565b336001600160a01b037f000000000000000000000000000000000000000000000000000000000000000016146106ec5760405163c6829f8360e01b815260040160405180910390fd5b6106f7838383611b54565b60405183907f85e1543bf2f84fe80c6badbce3648c8539ad1df4d2b3d822938ca0538be727e690600090a2505050565b61072f611bd7565b6001600160a01b03919091166000908152600f60205260409020805460ff1916911515919091179055565b60606000805b600e548110156107bb57600d6000600e838154811061078157610781613174565b6000918252602080832090910154835282019290925260400190205460ff16156107b357816107af816131a0565b9250505b600101610760565b506000816001600160401b038111156107d6576107d6612c5d565b60405190808252806020026020018201604052801561081b57816020015b60408051808201909152600080825260208201528152602001906001900390816107f45790505b5090506000805b600e548110156108f457600d6000600e838154811061084357610843613174565b6000918252602080832090910154835282019290925260400190205460ff16156108ec57600c6000600e838154811061087e5761087e613174565b600091825260208083209091015483528281019390935260409182019020815180830190925254600381810b8352640100000000909104900b9181019190915283518490849081106108d2576108d2613174565b602002602001018190525081806108e8906131a0565b9250505b600101610822565b50909392505050565b610905611bd7565b60008282604051602001610929929190600392830b8152910b602082015260400190565b60408051601f1981840301815291815281516020928301206000818152600d90935291205490915060ff166109965760405162461bcd60e51b81526020600482015260136024820152724c6f636174696f6e206e6f742061637469766560681b604482015260640161021d565b6000908152600d60205260409020805460ff191690555050565b600480546109bd906131b9565b80601f01602080910402602001604051908101604052809291908181526020018280546109e9906131b9565b8015610a365780601f10610a0b57610100808354040283529160200191610a36565b820191906000526020600020905b815481529060010190602001808311610a1957829003601f168201915b505050505081565b610a46611bd7565b610a4e611c04565b565b610a58611bd7565b6001600160a01b038116610aa05760405162461bcd60e51b815260206004820152600f60248201526e496e76616c6964206164647265737360881b604482015260640161021d565b600b80546001600160a01b0319166001600160a01b0392909216919091179055565b600e8181548110610ad257600080fd5b600091825260209091200154905081565b60025461010090046001600160401b0316600003610b3d5760405162461bcd60e51b815260206004820152601760248201527614dd589cd8dc9a5c1d1a5bdb881251081b9bdd081cd95d604a1b604482015260640161021d565b6000610b4b828401846131f3565b905060005b8151811015610cb7576000828281518110610b6d57610b6d613174565b6020908102919091018101516000818152600d90925260409091205490915060ff1615610cae576000818152600c60209081526040808320815180830183529054600381810b8352640100000000909104900b81840152815160028082526060820190935290939290919082015b6060815260200190600190039081610bdb5750508251909150610c009060030b611c56565b81600081518110610c1357610c13613174565b6020026020010181905250610c2e826020015160030b611c56565b81600181518110610c4157610c41613174565b60200260200101819052506000610c5782611d72565b9050807f4c31e347548421d769c0c5666a0b5f365a69f50ee484d27451bcdd2521872a6184600001518560200151604051610ca2929190600392830b8152910b602082015260400190565b60405180910390a25050505b50600101610b50565b50505050565b600580546109bd906131b9565b600a80546109bd906131b9565b610cdf611efc565b610ce7611f26565b60008111610d375760405162461bcd60e51b815260206004820152601e60248201527f5072656d69756d206d7573742062652067726561746572207468616e20300000604482015260640161021d565b803414610d7e5760405162461bcd60e51b8152602060048201526015602482015274125b98dbdc9c9958dd08185b5bdd5b9d081cd95b9d605a1b604482015260640161021d565b428211610dcd5760405162461bcd60e51b815260206004820152601c60248201527f53746172742064617465206d75737420626520696e2066757475726500000000604482015260640161021d565b600b546040516000916001600160a01b03169034908381818185875af1925050503d8060008114610e1a576040519150601f19603f3d011682016040523d82523d6000602084013e610e1f565b606091505b5050905080610e665760405162461bcd60e51b815260206004820152601360248201527208cc2d2d8cac840e8de40e6cadcc84082ac82b606b1b604482015260640161021d565b610e708585611f4a565b336001600160a01b03167fe6a90c9ec747dd12f52f7ea6f31f3a8e374b0a843f67857ee381fc53e7ce2b598760003489898942604051610eb697969594939291906132a2565b60405180910390a250610ec860018055565b5050505050565b600e805460405190151591606091610eea919060200161331e565b60405160208183030381529060405290509250929050565b610f0a611bd7565b610a4e6000612195565b610f1c611bd7565b610a4e6121e5565b610f2c611bd7565b47818110801590610f3d5750600082115b610f835760405162461bcd60e51b8152602060048201526017602482015276125b9d985b1a59081dda5d1a191c985dc8185b5bdd5b9d604a1b604482015260640161021d565b600080546040516001600160a01b039091169084908381818185875af1925050503d8060008114610fd0576040519150601f19603f3d011682016040523d82523d6000602084013e610fd5565b606091505b50509050806110265760405162461bcd60e51b815260206004820152601760248201527f4661696c656420746f2077697468647261772041564158000000000000000000604482015260640161021d565b6000546001600160a01b03166001600160a01b03167fef54a8695b775b4a66c170f0254145106f13fc15a44c91c05f42bc59982de99d8460405161106a9190613359565b60405180910390a2505050565b61107f611bd7565b611087611efc565b6001600160a01b0384166110d45760405162461bcd60e51b8152602060048201526014602482015273496e76616c69642075736572206164647265737360601b604482015260640161021d565b600082116111305760405162461bcd60e51b8152602060048201526024808201527f5061796f757420616d6f756e74206d75737420626520677265617465722074686044820152630616e20360e41b606482015260840161021d565b60008351116111745760405162461bcd60e51b815260206004820152601060248201526f125b9d985b1a590818db185a5b48125160821b604482015260640161021d565b6001600160a01b03811661127157814710156111d25760405162461bcd60e51b815260206004820152601a60248201527f415641582062616c616e6365206973206e6f7420656e6f756768000000000000604482015260640161021d565b6000846001600160a01b03168360405160006040518083038185875af1925050503d806000811461121f576040519150601f19603f3d011682016040523d82523d6000602084013e611224565b606091505b505090508061126b5760405162461bcd60e51b815260206004820152601360248201527208cc2d2d8cac840e8de40e6cadcc84082ac82b606b1b604482015260640161021d565b50611454565b6001600160a01b0381166000908152600f602052604090205460ff166112d95760405162461bcd60e51b815260206004820152601760248201527f546f6b656e204552433230206e6f7420616c6c6f776564000000000000000000604482015260640161021d565b6040516370a0823160e01b8152306004820152819083906001600160a01b038316906370a0823190602401602060405180830381865afa158015611321573d6000803e3d6000fd5b505050506040513d601f19601f820116820180604052508101906113459190613383565b10156113935760405162461bcd60e51b815260206004820152601b60248201527f546f6b656e2062616c616e6365206973206e6f7420656e6f7567680000000000604482015260640161021d565b60405163a9059cbb60e01b81526001600160a01b0386811660048301526024820185905282169063a9059cbb906044016020604051808303816000875af11580156113e2573d6000803e3d6000fd5b505050506040513d601f19601f82011682018060405250810190611406919061339c565b6114525760405162461bcd60e51b815260206004820152601860248201527f4661696c656420746f207472616e7366657220746f6b656e0000000000000000604482015260640161021d565b505b600080516020613a5083398151915260008460405160200161147691906133b9565b60408051601f198184030181529082905261149192916133fe565b60405180910390a1836001600160a01b03167f0bf4345463ec394d8d860df628fbb2fd9ee2e8f19bd684b00fcca9f51ba23d50848460006001600160a01b0316856001600160a01b0316146115035760405180604001604052806005815260200164045524332360dc1b815250611521565b60405180604001604052806004815260200163082ac82b60e31b8152505b6040516115309392919061341a565b60405180910390a2610cb760018055565b611549611efc565b611551611f26565b6001600160a01b0381166000908152600f6020526040902054819060ff166115bb5760405162461bcd60e51b815260206004820152601760248201527f455243323020746f6b656e206e6f7420616c6c6f776564000000000000000000604482015260640161021d565b42841161160a5760405162461bcd60e51b815260206004820152601c60248201527f53746172742064617465206d75737420626520696e2066757475726500000000604482015260640161021d565b6000831161165a5760405162461bcd60e51b815260206004820152601e60248201527f5072656d69756d206d7573742062652067726561746572207468616e20300000604482015260640161021d565b604051636eb1769f60e11b8152336004820152306024820152829084906001600160a01b0383169063dd62ed3e90604401602060405180830381865afa1580156116a8573d6000803e3d6000fd5b505050506040513d601f19601f820116820180604052508101906116cc9190613383565b10156117135760405162461bcd60e51b8152602060048201526016602482015275496e73756666696369656e7420616c6c6f77616e636560501b604482015260640161021d565b600b546040516323b872dd60e01b81523360048201526001600160a01b03918216602482015260448101869052908216906323b872dd906064016020604051808303816000875af115801561176c573d6000803e3d6000fd5b505050506040513d601f19601f82011682018060405250810190611790919061339c565b6117d45760405162461bcd60e51b8152602060048201526015602482015274115490cc8c081d1c985b9cd9995c8819985a5b1959605a1b604482015260640161021d565b6117de8787611f4a565b336001600160a01b03167fe6a90c9ec747dd12f52f7ea6f31f3a8e374b0a843f67857ee381fc53e7ce2b598985878b8b8b42604051611823979695949392919061344f565b60405180910390a2505061183660018055565b505050505050565b611846611bd7565b6040516370a0823160e01b815230600482015282906000906001600160a01b038316906370a0823190602401602060405180830381865afa15801561188f573d6000803e3d6000fd5b505050506040513d601f19601f820116820180604052508101906118b39190613383565b90508281101580156118c55750600083115b61190b5760405162461bcd60e51b8152602060048201526017602482015276125b9d985b1a59081dda5d1a191c985dc8185b5bdd5b9d604a1b604482015260640161021d565b816001600160a01b031663a9059cbb61192c6000546001600160a01b031690565b6040516001600160e01b031960e084901b1681526001600160a01b039091166004820152602481018690526044016020604051808303816000875af1158015611979573d6000803e3d6000fd5b505050506040513d601f19601f8201168201806040525081019061199d919061339c565b6119e95760405162461bcd60e51b815260206004820152601960248201527f4661696c656420746f20776974686472617720746f6b656e7300000000000000604482015260640161021d565b6000546001600160a01b03166001600160a01b03167fef54a8695b775b4a66c170f0254145106f13fc15a44c91c05f42bc59982de99d84604051611a2d91906134b7565b60405180910390a250505050565b611a43611bd7565b806001600160401b0316600003611a9c5760405162461bcd60e51b815260206004820152601760248201527f496e76616c696420737562736372697074696f6e204944000000000000000000604482015260640161021d565b6002805468ffffffffffffffff0019166101006001600160401b038416021790556040805160008152602081018290526017818301527f537562736372697074696f6e204944207570646174656400000000000000000060608201529051600080516020613a50833981519152916080908290030190a150565b611b1e611bd7565b6001600160a01b038116611b4857604051631e4fbdf760e01b81526000600482015260240161021d565b611b5181612195565b50565b8260035414611b795760405163d068bf5b60e01b81526004810184905260240161021d565b6004611b858382613529565b50600a611b928382613529565b506005611b9f8282613529565b50827f61e502bb0b7c53ac708f72c0795f269e39db94e98d1fe166ecfca33e799afe70600a6004600560405161106a9392919061366a565b6000546001600160a01b03163314610a4e5760405163118cdaa760e01b815233600482015260240161021d565b611c0c612222565b6002805460ff191690557f5db9ee0a495bf2e6ff9c91a7834c1ba4fdd244a5e8aa4e537bd38aeae4b073aa335b6040516001600160a01b03909116815260200160405180910390a1565b60608160030b600003611c875750506040805180820190915260088152670302e3030303030360c41b602082015290565b6000808360030b129050600081611c9e5783611ca7565b611ca7846136a3565b90506000611cb8620f4240836136dc565b90506000611cc9620f424084613704565b90506000611cd683612245565b90506000611ce383612245565b90505b600681511015611d175780604051602001611d01919061372c565b6040516020818303038152906040529050611ce6565b85611d43578181604051602001611d2f929190613755565b604051602081830303815290604052611d66565b8181604051602001611d56929190613791565b6040516020818303038152906040525b98975050505050505050565b60025460009061010090046001600160401b03168103611dce5760405162461bcd60e51b815260206004820152601760248201527614dd589cd8dc9a5c1d1a5bdb881251081b9bdd081cd95d604a1b604482015260640161021d565b611e0f6040805160e0810190915280600081526020016000815260200160008152602001606081526020016060815260200160608152602001606081525090565b611eac60078054611e1f906131b9565b80601f0160208091040260200160405190810160405280929190818152602001828054611e4b906131b9565b8015611e985780601f10611e6d57610100808354040283529160200191611e98565b820191906000526020600020905b815481529060010190602001808311611e7b57829003601f168201915b50505050508261236b90919063ffffffff16565b825115611ebd57611ebd818461237c565b611ef0611ec9826123a6565b6002546008546009546101009092046001600160401b03169163ffffffff9091169061266e565b60038190559392505050565b600260015403611f1f57604051633ee5aeb560e01b815260040160405180910390fd5b6002600155565b60025460ff1615610a4e5760405163d93c066560e01b815260040160405180910390fd5b60008282604051602001611f6e929190600392830b8152910b602082015260400190565b60405160208183030381529060405280519060200120905063055d4a7f198360030b1280611fa2575063055d4a808360030b135b1561203257600080516020613a508339815191526001611fc48560030b611c56565b604051602001611fd491906137da565b60408051601f1981840301815290829052611fef92916133fe565b60405180910390a160405162461bcd60e51b815260206004820152601060248201526f496e76616c6964206c6174697475646560801b604482015260640161021d565b630aba94ff198260030b128061204e5750630aba95008260030b135b156120df57600080516020613a5083398151915260016120708460030b611c56565b6040516020016120809190613814565b60408051601f198184030181529082905261209b92916133fe565b60405180910390a160405162461bcd60e51b8152602060048201526011602482015270496e76616c6964206c6f6e67697475646560781b604482015260640161021d565b6000818152600d602052604090205460ff1661219057604080518082018252600385810b825284900b60208083019182526000858152600c825284812093518454935163ffffffff9081166401000000000267ffffffffffffffff1990951691161792909217909255600d909152908120805460ff19166001908117909155600e805491820181559091527fbb7b4a454dc3493923482f07822329ed19e8244eff582cc204f8554c3620c3fd018190555b505050565b600080546001600160a01b038381166001600160a01b0319831681178455604051919092169283917f8be0079c531659141344cd1fd0a4f28419497f9722a3daafe3b4186f6b6457e09190a35050565b6121ed611f26565b6002805460ff191660011790557f62e78cea01bee320cd4e420270b5ea74000d11b0c9f74754ebdbfc544b05a258611c393390565b60025460ff16610a4e57604051638dfc202b60e01b815260040160405180910390fd5b60608163ffffffff166000036122725750506040805180820190915260018152600360fc1b602082015290565b8160005b63ffffffff8216156122a2578061228c8161384f565b915061229b9050600a836136dc565b9150612276565b60008163ffffffff166001600160401b038111156122c2576122c2612c5d565b6040519080825280601f01601f1916602001820160405280156122ec576020820181803683370190505b5090505b63ffffffff85161561236357612307600183613874565b9150612314600a86613704565b61231f906030613890565b60f81b818363ffffffff168151811061233a5761233a613174565b60200101906001600160f81b031916908160001a90535061235c600a866136dc565b94506122f0565b949350505050565b6123788260008084612740565b5050565b805160000361239e5760405163fe936cb760e01b815260040160405180910390fd5b60a090910152565b606060006123b56101006127be565b90506123ee6040518060400160405280600c81526020016b31b7b232a637b1b0ba34b7b760a11b815250826127df90919063ffffffff16565b825161240c906002811115612405576124056138ac565b82906127f8565b6040805180820190915260088152676c616e677561676560c01b60208201526124369082906127df565b604083015161244d908015612405576124056138ac565b604080518082019091526006815265736f7572636560d01b60208201526124759082906127df565b60608301516124859082906127df565b60a08301515115612511576040805180820190915260048152636172677360e01b60208201526124b69082906127df565b6124bf81612831565b60005b8360a0015151811015612507576124ff8460a0015182815181106124e8576124e8613174565b6020026020010151836127df90919063ffffffff16565b6001016124c2565b5061251181612855565b608083015151156125d557600083602001516002811115612534576125346138ac565b036125525760405163a80d31f760e01b815260040160405180910390fd5b60408051808201909152600f81526e39b2b1b932ba39a637b1b0ba34b7b760891b60208201526125839082906127df565b61259c83602001516002811115612405576124056138ac565b6040805180820190915260078152667365637265747360c81b60208201526125c59082906127df565b60808301516125d5908290612873565b60c083015151156126665760408051808201909152600981526862797465734172677360b81b602082015261260b9082906127df565b61261481612831565b60005b8360c001515181101561265c576126548460c00151828151811061263d5761263d613174565b60200260200101518361287390919063ffffffff16565b600101612617565b5061266681612855565b515192915050565b6000807f00000000000000000000000000000000000000000000000000000000000000006001600160a01b031663461d27628688600188886040518663ffffffff1660e01b81526004016126c69594939291906138c2565b6020604051808303816000875af11580156126e5573d6000803e3d6000fd5b505050506040513d601f19601f820116820180604052508101906127099190613383565b60405190915081907f1131472297a800fee664d1d89cfa8f7676ff07189ecc53f80bbb5f4969099db890600090a295945050505050565b8051600003612762576040516322ce3edd60e01b815260040160405180910390fd5b83836002811115612775576127756138ac565b90816002811115612788576127886138ac565b9052506040840182801561279e5761279e6138ac565b908180156127ae576127ae6138ac565b9052506060909301929092525050565b6127c6612c28565b80516127d29083612880565b5060006020820152919050565b6127ec82600383516128fa565b81516121909082612a13565b81516128059060c2612a3b565b50612378828260405160200161281d91815260200190565b604051602081830303815290604052612873565b61283c816004612aa4565b60018160200181815161284f919061390b565b90525050565b612860816007612aa4565b60018160200181815161284f919061391e565b6127ec82600283516128fa565b6040805180820190915260608152600060208201526128a0602083613931565b156128c8576128b0602083613931565b6128bb90602061391e565b6128c5908361390b565b91505b6020808401839052604051808552600081529081840101818110156128ec57600080fd5b604052508290505b92915050565b6017816001600160401b031611612920578251610cb79060e0600585901b168317612a3b565b60ff816001600160401b031611612960578251612948906018611fe0600586901b1617612a3b565b508251610cb7906001600160401b0383166001612abb565b61ffff816001600160401b0316116129a1578251612989906019611fe0600586901b1617612a3b565b508251610cb7906001600160401b0383166002612abb565b63ffffffff816001600160401b0316116129e45782516129cc90601a611fe0600586901b1617612a3b565b508251610cb7906001600160401b0383166004612abb565b82516129fb90601b611fe0600586901b1617612a3b565b508251610cb7906001600160401b0383166008612abb565b604080518082019091526060815260006020820152612a3483838451612b40565b9392505050565b6040805180820190915260608152600060208201528251516000612a6082600161390b565b905084602001518210612a8157612a8185612a7c836002613945565b612c11565b8451602083820101858153508051821115612a9a578181525b5093949350505050565b815161219090601f611fe0600585901b1617612a3b565b6040805180820190915260608152600060208201528351516000612adf828561390b565b90508560200151811115612afc57612afc86612a7c836002613945565b60006001612b0c86610100613a43565b612b16919061391e565b90508651828101878319825116178152508051831115612b34578281525b50959695505050505050565b6040805180820190915260608152600060208201528251821115612b6357600080fd5b8351516000612b72848361390b565b90508560200151811115612b8f57612b8f86612a7c836002613945565b855180518382016020019160009180851115612ba9578482525b505050602086015b60208610612be95780518252612bc860208361390b565b9150612bd560208261390b565b9050612be260208761391e565b9550612bb1565b51815160001960208890036101000a0190811690199190911617905250849150509392505050565b8151612c1d8383612880565b50610cb78382612a13565b6040518060400160405280612c50604051806040016040528060608152602001600081525090565b8152602001600081525090565b634e487b7160e01b600052604160045260246000fd5b604051601f8201601f191681016001600160401b0381118282101715612c9b57612c9b612c5d565b604052919050565b600082601f830112612cb457600080fd5b8135602083016000806001600160401b03841115612cd457612cd4612c5d565b50601f8301601f1916602001612ce981612c73565b915050828152858383011115612cfe57600080fd5b82826020830137600092810160200192909252509392505050565b600080600060608486031215612d2e57600080fd5b8335925060208401356001600160401b03811115612d4b57600080fd5b612d5786828701612ca3565b92505060408401356001600160401b03811115612d7357600080fd5b612d7f86828701612ca3565b9150509250925092565b80356001600160a01b0381168114612da057600080fd5b919050565b8015158114611b5157600080fd5b60008060408385031215612dc657600080fd5b612dcf83612d89565b91506020830135612ddf81612da5565b809150509250929050565b602080825282518282018190526000918401906040840190835b81811015612e355783518051600390810b8552602091820151900b8185015290930192604090920191600101612e04565b509095945050505050565b8035600381900b8114612da057600080fd5b60008060408385031215612e6557600080fd5b612e6e83612e40565b9150612e7c60208401612e40565b90509250929050565b60005b83811015612ea0578181015183820152602001612e88565b50506000910152565b60008151808452612ec1816020860160208601612e85565b601f01601f19169290920160200192915050565b602081526000612a346020830184612ea9565b600060208284031215612efa57600080fd5b612a3482612d89565b600060208284031215612f1557600080fd5b5035919050565b60008060208385031215612f2f57600080fd5b82356001600160401b03811115612f4557600080fd5b8301601f81018513612f5657600080fd5b80356001600160401b03811115612f6c57600080fd5b856020828401011115612f7e57600080fd5b6020919091019590945092505050565b60008060408385031215612fa157600080fd5b50508035926020909101359150565b600080600080600060a08688031215612fc857600080fd5b85356001600160401b03811115612fde57600080fd5b612fea88828901612ca3565b955050612ff960208701612e40565b935061300760408701612e40565b94979396509394606081013594506080013592915050565b82151581526040602082015260006123636040830184612ea9565b6000806000806080858703121561305057600080fd5b61305985612d89565b935060208501356001600160401b0381111561307457600080fd5b61308087828801612ca3565b9350506040850135915061309660608601612d89565b905092959194509250565b60008060008060008060c087890312156130ba57600080fd5b86356001600160401b038111156130d057600080fd5b6130dc89828a01612ca3565b9650506130eb60208801612e40565b94506130f960408801612e40565b9350606087013592506080870135915061311560a08801612d89565b90509295509295509295565b6000806040838503121561313457600080fd5b61313d83612d89565b946020939093013593505050565b60006020828403121561315d57600080fd5b81356001600160401b0381168114612a3457600080fd5b634e487b7160e01b600052603260045260246000fd5b634e487b7160e01b600052601160045260246000fd5b6000600182016131b2576131b261318a565b5060010190565b600181811c908216806131cd57607f821691505b6020821081036131ed57634e487b7160e01b600052602260045260246000fd5b50919050565b60006020828403121561320557600080fd5b81356001600160401b0381111561321b57600080fd5b8201601f8101841361322c57600080fd5b80356001600160401b0381111561324557613245612c5d565b8060051b61325560208201612c73565b9182526020818401810192908101908784111561327157600080fd5b6020850194505b8385101561329757843580835260209586019590935090910190613278565b979650505050505050565b610100815260006132b761010083018a612ea9565b6001600160a01b038916602084015260408301889052600387810b606085015286900b608084015260a0830185905282810360c0840152613309816004815263082ac82b60e31b602082015260400190565b9150508260e083015298975050505050505050565b602080825282548282018190526000848152918220906040840190835b81811015612e3557835483526001938401936020909301920161333b565b818152604060208201526000612a34604083016004815263082ac82b60e31b602082015260400190565b60006020828403121561339557600080fd5b5051919050565b6000602082840312156133ae57600080fd5b8151612a3481612da5565b7f50726f636573736564207061796f757420666f7220636c61696d3a20000000008152600082516133f181601c850160208701612e85565b91909101601c0192915050565b60ff831681526040602082015260006123636040830184612ea9565b60608152600061342d6060830186612ea9565b84602084015282810360408401526134458185612ea9565b9695505050505050565b6101008152600061346461010083018a612ea9565b6001600160a01b038916602084015260408301889052600387810b606085015286900b608084015260a0830185905282810360c0840152613309816005815264045524332360dc1b602082015260400190565b818152604060208201526000612a34604083016005815264045524332360dc1b602082015260400190565b601f82111561219057806000526020600020601f840160051c810160208510156135095750805b601f840160051c820191505b81811015610ec85760008155600101613515565b81516001600160401b0381111561354257613542612c5d565b6135568161355084546131b9565b846134e2565b6020601f82116001811461358a57600083156135725750848201515b600019600385901b1c1916600184901b178455610ec8565b600084815260208120601f198516915b828110156135ba578785015182556020948501946001909201910161359a565b50848210156135d85786840151600019600387901b60f8161c191681555b50505050600190811b01905550565b600081546135f4816131b9565b80855260018216801561360e576001811461362a57613661565b60ff1983166020870152602082151560051b8701019350613661565b84600052602060002060005b838110156136585781546020828a010152600182019150602081019050613636565b87016020019450505b50505092915050565b60608152600061367d60608301866135e7565b828103602084015261368f81866135e7565b9050828103604084015261344581856135e7565b60008160030b637fffffff1981036136bd576136bd61318a565b60000392915050565b634e487b7160e01b600052601260045260246000fd5b600063ffffffff8316806136f2576136f26136c6565b8063ffffffff84160491505092915050565b600063ffffffff83168061371a5761371a6136c6565b8063ffffffff84160691505092915050565b600360fc1b815260008251613748816001850160208701612e85565b9190910160010192915050565b60008351613767818460208801612e85565b601760f91b9083019081528351613785816001840160208801612e85565b01600101949350505050565b602d60f81b8152600083516137ad816001850160208801612e85565b601760f91b60019184019182015283516137ce816002840160208801612e85565b01600201949350505050565b71024b73b30b634b2103630ba34ba3ab2329d160751b815260008251613807816012850160208701612e85565b9190910160120192915050565b72024b73b30b634b2103637b733b4ba3ab2329d1606d1b815260008251613842816013850160208701612e85565b9190910160130192915050565b600063ffffffff821663ffffffff810361386b5761386b61318a565b60010192915050565b63ffffffff82811682821603908111156128f4576128f461318a565b63ffffffff81811683821601908111156128f4576128f461318a565b634e487b7160e01b600052602160045260246000fd5b6001600160401b038616815260a0602082015260006138e460a0830187612ea9565b61ffff9590951660408301525063ffffffff92909216606083015260809091015292915050565b808201808211156128f4576128f461318a565b818103818111156128f4576128f461318a565b600082613940576139406136c6565b500690565b80820281158282048414176128f4576128f461318a565b6001815b60018411156139975780850481111561397b5761397b61318a565b600184161561398957908102905b60019390931c928002613960565b935093915050565b6000826139ae575060016128f4565b816139bb575060006128f4565b81600181146139d157600281146139db576139f7565b60019150506128f4565b60ff8411156139ec576139ec61318a565b50506001821b6128f4565b5060208310610133831016604e8410600b8410161715613a1a575081810a6128f4565b613a27600019848461395c565b8060001904821115613a3b57613a3b61318a565b029392505050565b6000612a34838361399f56fe65e40f25ac92211a0992a34efd5daa3e9518b7dbce75ac8f5060ca856982a3f8a264697066735822122006f8a7d96334503af3da61800aceaae8965bfc51d8cca8b2691efe8f290c597964736f6c634300081c0033636f6e7374206c6174203d20617267735b305d3b636f6e7374206c6f6e203d20617267735b315d3b636f6e7374206170694b6579203d2027673475314c506968535079685138474e716e43617051364c4f50514533573144273b636f6e737420617069526573706f6e7365203d2061776169742046756e6374696f6e732e6d616b654874747052657175657374287b202075726c3a206068747470733a2f2f6170692e746f6d6f72726f772e696f2f76342f776561746865722f7265616c74696d65602c2020706172616d733a207b202020206c6f636174696f6e3a2060247b6c61747d2c247b6c6f6e7d602c202020206170696b65793a206170694b65792c20207d2c7d293b69662028617069526573706f6e73652e6572726f7229207b2020636f6e736f6c652e6572726f72282752657175657374206661696c65643a272c20617069526573706f6e73652e6572726f72293b20207468726f77204572726f72282252657175657374206661696c656422293b7d636f6e73742077656174686572203d20617069526573706f6e73652e646174613f2e646174613f2e76616c7565733b69662028217765617468657229207b20207468726f77204572726f7228224e6f2077656174686572206461746120726563656976656422293b7d636f6e737420657373656e7469616c44617461203d207b202074656d70657261747572653a20776561746865722e74656d70657261747572652c20207261696e496e74656e736974793a20776561746865722e7261696e496e74656e736974792c202070726563697069746174696f6e50726f626162696c6974793a20776561746865722e70726563697069746174696f6e50726f626162696c6974792c202068756d69646974793a20776561746865722e68756d69646974792c202077696e6453706565643a20776561746865722e77696e6453706565642c202074696d657374616d703a20617069526573706f6e73652e646174613f2e646174613f2e74696d652c7d3b636f6e736f6c652e6c6f6728275765617468657220646174613a272c204a534f4e2e737472696e6769667928657373656e7469616c446174612c206e756c6c2c203229293b72657475726e2046756e6374696f6e732e656e636f6465537472696e67284a534f4e2e737472696e6769667928657373656e7469616c4461746129293b",
  "linkReferences": {},
  "deployedLinkReferences": {}
}